{
  "_format": "hh-sol-artifact-1",
  "contractName": "PokerRoom",
  "sourceName": "contracts/PokerRoom.sol",
  "abi": [
    {
      "inputs": [],
      "name": "fetch",
      "outputs": [
        {
          "internalType": "uint256",
          "name": "",
          "type": "uint256"
        }
      ],
      "stateMutability": "view",
      "type": "function"
    },
    {
      "inputs": [
        {
          "internalType": "uint256",
          "name": "_val",
          "type": "uint256"
        }
      ],
      "name": "set",
      "outputs": [
        {
          "internalType": "bool",
          "name": "",
          "type": "bool"
        }
      ],
      "stateMutability": "nonpayable",
      "type": "function"
    }
  ],
  "bytecode": "0x608060405234801561001057600080fd5b5061019f806100206000396000f3fe608060405234801561001057600080fd5b50600436106100365760003560e01c806360fe47b11461003b578063a95c372d1461006b575b600080fd5b610055600480360381019061005091906100bf565b610089565b6040516100629190610106565b60405180910390f35b61007361009b565b6040516100809190610121565b60405180910390f35b60008160008190555060019050919050565b60008060005490508091505090565b6000813590506100b981610152565b92915050565b6000602082840312156100d157600080fd5b60006100df848285016100aa565b91505092915050565b6100f18161013c565b82525050565b61010081610148565b82525050565b600060208201905061011b60008301846100e8565b92915050565b600060208201905061013660008301846100f7565b92915050565b60008115159050919050565b6000819050919050565b61015b81610148565b811461016657600080fd5b5056fea264697066735822122058a066cc7c5a8c1adc9477ff857a5b56e84f45965b16f061550acec669616dce64736f6c63430008000033",
  "linkReferences": {},
  "deployedLinkReferences": {}
}